:020000040800F2
:10000000100400204501000891030008490300087E
:100010008D0300088D0100080105000800000000A4
:10002000000000000000000000000000B503000810
:100030009101000800000000930300089D040008DF
:100040005F0100085F0100085F0100085F01000810
:100050005F0100085F0100085F0100085F01000800
:100060005F0100085F0100085F0100085F010008F0
:100070005F0100085F0100085F0100085F010008E0
:100080005F0100085F0100085F0100085F010008D0
:100090005F0100085F0100085F0100085F010008C0
:1000A0005F0100085F0100085F0100085F010008B0
:1000B0005F0100085F0100085F0100085F010008A0
:1000C0005F0100085F0100085F0100085F01000890
:1000D0005F0100085F0100085F0100085F01000880
:1000E0005F0100085F0100085F0100085F01000870
:1000F0005F0100085F0100085F0100085F01000860
:100100005F0100085F0100085F0100085F0100084F
:100110005F0100085F0100085F0100085F0100083F
:100120005F0100085F0100085F0100085F0100082F
:10013000DFF80CD000F018F800480047250500084B
:10014000100400200648804706480047FEE7FEE707
:10015000FEE7FEE7FEE7FEE7FEE7FEE7FEE7FEE777
:10016000A104000831010008064C074D06E0E068D4
:1001700040F0010394E8070098471034AC42F6D3EE
:10018000FFF7DAFF500500087005000800BFFEE722
:10019000704701B502E00098401E009000980028CA
:1001A000F9D108BD2DE9F0410246002500260020C6
:1001B00000230024002791F803C00CF00F0591F8EC
:1001C00003C01CF0100F03D091F802C04CEA0505E3
:1001D00091F800C0BCF1000F31D0146800202BE072
:1001E0004FF0010C0CFA00F3B1F800C00CEA030662
:1001F0009E4220D183004FF00F0C0CFA03F7BC4352
:1002000005FA03FC4CEA040491F803C0BCF1280F82
:1002100006D14FF0010C0CFA00FCC2F814C00AE041
:1002200091F803C0BCF1480F05D14FF0010C0CFA56
:1002300000FCC2F810C0401C0828D1D31460B1F8EB
:1002400000C0BCF1FF0F34DD546800202EE000F147
:10025000080C4FF0010808FA0CF3B1F800C00CEAE2
:1002600003069E4221D183004FF00F0C0CFA03F7D6
:10027000BC4305FA03FC4CEA040491F803C0BCF14A
:10028000280F05D100F1080C08FA0CF8C2F8148008
:1002900091F803C0BCF1480F07D100F1080C4FF0F2
:1002A000010808FA0CF8C2F81080401C0828CED3C8
:1002B0005460BDE8F0810000F0B50A460023002438
:1002C0000021002500F00046B6F1004F02D11D4E7E
:1002D000F16901E01B4E7168C0F3034583B200F47D
:1002E0004016B6F5401F08D121F07061154E7668B2
:1002F00026F07066134F7E6012E000F48016B6F5AB
:10030000801F06D1032606FA05F4A14341F070616F
:1003100006E0460D360103FA06F6B14341F070617E
:1003200022B1460D360103FA06F6314300F00046CD
:10033000B6F1004F02D1034EF16101E0014E716050
:10034000F0BD00000000014000BFFEE708B501213C
:10035000084600F01FF801210C2000F01BF80121D5
:100360000848FFF7A9FFFF20ADF8000010208DF826
:10037000030003208DF8020069460348FFF712FFCF
:1003800008BD000000023000000C014000BFFEE785
:100390007047704729B1064A92690243044B9A613B
:1003A00004E0034A92698243014B9A61704700005E
:1003B00000100240704710B500F002F810BD0000B8
:1003C0000CB50020019000903248006840F4803065
:1003D0003049086000BF2F48006800F400300090EA
:1003E0000198401C0190009818B90198B0F5A06FD1
:1003F000F1D12848006810F4003F02D0012000909D
:1004000001E0002000900098012842D122480068B5
:1004100040F01000204908600846006820F0030002
:1004200008600846006840F002000860194840680B
:10043000184948600846406848600846406840F4EB
:10044000806048600846406820F47C104860084698
:10045000406840F4E81048600846006840F080704A
:10046000086000BF0B48006810F0007FFAD0094810
:10047000406820F00300074948600846406840F0A3
:100480000200486000BF0348406800F00C000828E4
:10049000F9D10CBD0010024000200240704700005E
:1004A00010B51348006840F0010011490860084683
:1004B0004068104908400E494860084600680E49E7
:1004C00008400B4908600846006820F48020086056
:1004D0000846406820F4FE0048604FF41F00886022
:1004E000FFF769FF4FF000600449086010BD00008D
:1004F000001002400000FFF8FFFFF6FE08ED00E0EC
:1005000000BFFEE702E008C8121F08C1002AFAD1A6
:1005100070477047002001E001C1121F002AFBD183
:10052000704700000024FFF711FF0AE00548005D56
:10053000054908600548FFF72CFE641C092C00DD06
:100540000024F3E7000000200C0C0140A0BB0D00CC
:1005500070050008000000200C00000004050008E1
:100560007C0500080C0000200404000014050008AD
:0C05700090FA8CA8E2A181F880A00000A5
:0400000508000131BD
:00000001FF
